:020000040804EE
:10000000F8FF07248105040857D10A0845D10A08DA
:1000100059D10A0865D10A0871D10A080000000008
:100020000000000000000000000000007DD10A0870
:100030007FD10A0800000000FDE00A0815E10A0867
:1000400099020408F1D10A0803D20A0809D20A0861
:10005000FD470B0899020408A93C0B08AF3C0B08AC
:10006000B53C0B08BB3C0B08C13C0B0801040B085A
:1000700011040B0821040B0831040B0841040B0880
:1000800051040B0861040B08990204089902040842
:10009000990204089902040899020408C73C0B0855
:1000A0001DD20A0823D20A0829D20A082FD20A0828
:1000B00033D20A0839D20A083FD20A08D5D20A0830
:1000C000DBD20A08E1D20A08E7D20A0895150B0824
:1000D000990204089FD20A08A5D20A08ABD20A08DE
:1000E000EB3C0B08F7D10A080000000069D20A08AF
:1000F0006FD20A0887D20A0881D20A0871040B0855
:100100009902040851660B0845D20A0899020408AE
:10011000B1D20A08B7D20A085DD20A0863D20A0827
:1001200081040B0891040B08A1040B08B1040B080F
:10013000C1040B0899020408FDD10A0899020408B9
:100140009902040899020408000000000000000061
:10015000D1040B08E1040B08F1040B08BDD20A0816
:1001600099020408990204089902040899020408F3
:10017000990204089902040899020408000000008A
:100180009902040899020408C3D20A08C9D20A08CD
:1001900099020408A1150B089902040899020408A1
:1001A00099020408990204089902040899020408B3
:1001B000990204089902040899020408EDD20A0879
:1001C000F3D20A0899020408990204089902040863
:1001D0008DD10A0881D10A089902040899020408FD
:1001E0009902040899020408990204089902040873
:1001F0009902040899020408990204089902040863
:100200009902040899020408990204089902040852
:100210008DD20A0893D20A0899D20A0899020408D2
:100220009902040899020408990204089902040832
:1002300099020408B96E0B0899020408990204088F
:100240009902040899020408990204089902040812
:100250009902040899020408990204089902040802
:1002600099020408990204089902040899020408F2
:100270009902040899020408CFD20A0899020408D6
:100280009902040899020408990204080000000079
:08029000990204089902040818
:10029800FEE70000254AD2F8883043F47003C2F81C
:1002A8008830234A136803F00F03062B05D8136818
:1002B80023F00F0343F0070313601E4B1A6842F044
:1002C80001021A6000221A611B4A19680A4018497B
:1002D8001A600A68120705D50A6822F00F0242F070
:1002E80007020A60002215499A61DA611A62996266
:1002F8001349D962134919635A639963DA63196414
:100308005A64196821F4802119601A660E4B1B681B
:100318006FF30F03B3F1005F03D20C4B0122C3F854
:1003280008210B4B43F2D2021A60704700ED00E03F
:1003380000200052004402587FEDF6EA0002020253
:100348000000FF01800201010010005C00800051E4
:100358000040005200000000F0B5D3B02022002178
:100368007F4D0DAC05A85EF03DFC4C2200212046D7
:100378005EF038FCC822002120A85EF033FCEB6850
:1003880023F03F0343F00203EB606B689B04FCD54A
:1003980060F0C2FE42F20203984251D9714BD3F881
:1003A800F42042F00202C3F8F4200022D3F8F4301B
:1003B80003F002030193019B0292AA6942F44042AE
:1003C800AA61AA6902F440420292674AD16A41F0DE
:1003D8000101D162D26A02F001020292029B604AD4
:1003E80093699F04FCD50121042602250022A161FE
:1003F80021214023032021603F214FF48037A2644C
:100408000591F021676065630A93C4E90B611421C3
:10041800C4E90E150821CDE90602C4E90323C4E99D
:1004280010124FF480622046C4E90955CDE908133B
:10043800CDE90B2364F05CFEB8B14C486CF0D8FAF7
:1004480000220392484AD16A21F00101D162D26A9E
:1004580002F001020392AA6942F44042AA61AA6921
:1004680002F440420392039BB9E764233190419020
:1004780035904290229632954A97CDE923358023CC
:10048800CDE927305023CDE92B354FF40063CDE972
:100498002F304FF4401343934FF400734E934FF0B3
:1004A80080533D93202333934FF4005339932AA369
:1004B800D3E90023CDE9290620A8CDE92555CDE9C2
:1004C8002D55CDE9202365F0B9FB08B12848B5E7DB
:1004D800236B3021E26A05A81B01B3FBF2F3B3FBDF
:1004E800F1F201FB1232616B003AB3FBF1F118BF74
:1004F80001226DF0B5FE08B11E489FE7194B1A6836
:1005080042F080021A60D3F8F42042F00202C3F8E5
:10051800F420D3F8F43003F002030493049B60F052
:1005280029FE64F0DDFD4FF08071084660F002FEA0
:100538004FF00071084660F0FDFD4FF080610846FD
:1005480060F0F8FD4FF00061084660F0F3FD53B02D
:10055800F0BD00BFAFF3008008904F03000000001B
:10056800004802580044025800040058D0740B0890
:10057800E2740B08FC740B080446DFF82CD00B4916
:100588000B4A0C4B03E051F8040B42F8040B9A4257
:10059800F9D300200849094A01E041F8040B9142C7
:1005A800FBD320466CF02ABBF8FF0724083B15084C
:1005B80000000024200200242002002488E50024F2
:1005C80040F8044B40F8045B40F8046B40F8047BA7
:1005D80040F8048B40F8049B40F804AB40F804BB97
:1005E80040F804CB40F804DB68467047024B5A6970
:1005F800026058610020704720020024024B5A69AB
:1006080012685A61704700BF20020024024B9A69A1
:10061800C0E900219861704720020024044A9369C8
:100628001968916110B15A6818461047704700BFA1
:100638002002002438B50446044DAB690BB1A3422F
:1006480000D338BD0120FFF7E9FFF6E720020024B8
:10065800C460056146618761C0F81C80C0F82090BD
:10066800C0F824A0C0F828B0C0F82CD080ED0C8BBE
:1006780080ED0E9B80ED10ABC0F808E0FFF7B6BF29
:10068800124D6C6908B50CB96CF0A4FA606020468C
:10069800FFF7D0FF23686B612046C4680569466987
:1006A8008769D0F81C80D0F82090D0F824A0D0F822
:1006B80028B0D0F82CD090ED0C8B90ED0E9B90EDDF
:1006C80010ABD0F808E00120704700BF20020024DA
:1006D80010B50021044600F0FBFA18B914B1204601
:1006E8000DF05AFC10BD002100F0F2BA10B501213E
:1006F800044600F0EDFA18B914B120460DF04CFC90
:1007080010BDFFF7E5BF10B501220C4600F004FC50
:1007180018B914B120460DF03FFC10BD00F0FCBB29
:1007280000F0BCBB484308B50830FFF7DCFF40B118
:10073800044A936A03B118600021C0E9001390626B
:10074800083008BD20020024034678B153F8042C71
:10075800083812B153F8081C116053F8083C13B15B
:100768005A6000F09BBB024B9A62FAE7704700BFE1
:10077800200200242DE9F0414FF0030C0025294CFC
:100788000646D4F8B8020021013173189A0803F01C
:100798000303825C5B0042FA03F303F00303022BBA
:1007A800F2D0D4F8C402090100EB06104FEA910E0A
:1007B80061B300EB8E0E03681A0724D1D4F8C42263
:1007C800991A9A424FEA9117C1F301124FEA11118F
:1007D80019D8D4F8C86252009E4214D9D4F8B86225
:1007E8000CFA02F8F35D43FA02F243EA080302F056
:1007F8000302012A07D13F2DF35505F1B6030CD8A2
:10080800013544F8231004307045D4D145B1013D79
:1008180005F1B60354F82360B3E7C4F8D422F2E72D
:10082800BDE8F0812002002430B51C4C0122D4E937
:10083800B053C01AC109C0F302134FEA101C9A4002
:100848006B5C4FEA9C0E23EA02036B548309D4F8CD
:10085800CC220325B2EB901FD4F8B8020CF00302A7
:1008680088BFC4F8CC32C15C52000CF1010C05FA07
:1008780002F30CF0030221EA0301530000F80E1002
:100888004FEA9C0ED4F8B80210F80E1041FA03F3A0
:1008980003F00303022BE7D030BD00BF2002002481
:1008A80021F00F01154A38B50B1A154C0546013BC6
:1008B800C4F8C812C4F8B802DB00A2FB03235B0A21
:1008C8009A00C4F8BC32A1EB8311013307321D44EE
:1008D800C4F8C41203EBD2020021C4F8C0525EF07F
:1008E80081F9002301214FF0FF322381A4F8D813A6
:1008F800C4E9B333C4E9F73238BD00BFF32C23FA97
:1009080020020024024A138902331381704700BF72
:1009180020020024024A1389023B1381704700BF5A
:1009280020020024024B1889003818BF01207047A4
:1009380020020024F8B51C4D00222B8905F108047B
:1009480005F50376C5F8D42243F00103C5F8DC2386
:100958002B8154F8043F1A0719D1D5F8C422981AE4
:1009680093424FEA9011C0F301124FEA10100ED3D0
:10097800D5F8C8725200BB4209D2D5F8B87217F838
:1009880001C04CFA02F303F00303012B02D0B44276
:10099800DFD1F8BD032393404CEA030C07F801C0EC
:1009A800FFF7E8FEF3E700BF2002002471B3F8B5B3
:1009B8000F46051F0024164E55F8043F1A0719D193
:1009C800D6F8C422981A9A424FEA901CC0F3011232
:1009D8004FEA10100ED8D6F8C8125200994209D919
:1009E800D6F8B8E21EF80C1041FA02F303F003033C
:1009F800012B03D00134A742DED1F8BD0323934075
:100A080019430EF80C10FFF7B5FEF3E7704700BF67
:100A1800200200242DE9F043614C83B0D4F8D4328D
:100A2800D4F8B812C3B1D4F8BC3200259800C4F881
:100A3800D45288B10026B30806F00302CB5C5200FA
:100A4800134103F00303032B20D001368642F2D36F
:100A5800D4F8D432002BEAD1D4F8D0324FF00009C0
:100A680001274FEAD308D4F8C0324FEAC90513F872
:100A7800096046B305F0030316F0010F4FEA95022B
:100A88004FEA430314D176080135F3E730460136BF
:100A9800FFF770FED4F8BC32D4F8B812B6EB830F67
:100AA8004FEA8300C7D3D4F8D432002BBFD1D3E7A1
:100AB8008A5C42FA03F303F00303012B09D076089A
:100AC80005F10105D6D1C84509F1010325D099469C
:100AD800C9E7D4F8C4022B016A464FF4B561C3587C
:100AE80000EB05105BB10CF00FFC009B3BB10DF067
:100AF800C7FCDDE900010DF093FC0DF0D7FCEB0815
:100B0800D4F8C00205F00701C25C07FA01F122EA35
:100B18000102C254D4F8B812D1E74FF0000C0326F2
:100B28000227654662460EE0012905D106FA03F35D
:100B380001252EEA030303700132D4F8D0329A4219
:100B48001FD8D4F8B8124FEA920E02F0030301EB53
:100B5800920011F80EE05B004EFA03F101F0030178
:100B680002291AD00329DFD107FA03F32EEA030E6C
:100B780080F800E09446D4F8D032013200259A4239
:100B8800DFD923890022C4F8D0C223F00103C4F8B6
:100B9800CC22238103B0BDE8F083002DEAD0C5E75D
:100BA80020020024044B00211A89C3F8D41242F011
:100BB80001021A81FFF72EBF20020024434B0021B7
:100BC8002DE9F041D3E9B1420F460E46121BD3E995
:100BD800AE540B4641604FEA840C0C4681610260BA
:100BE800C0E90211C0E904119A0803F003080133AF
:100BF800AA5C4FEA4808ACEB030E42FA08F2BEFAC8
:100C08008EFE02F003024FEA5E1E012A49D0022A34
:100C180039D0A2BB01369C4501F101011746866017
:100C280022D09A0803F00308AA5C4FEA480842FA5F
:100C380008F202F00302012A02DDBEF1000FD3D050
:100C4800A2F10108012FB8FA88F84FEA581824D001
:100C5800022F02D14269013242618269BA4238BF29
:100C68008761B8F1000F02D1BEF1000FBCD0C26895
:100C78008A4238BFC1609C4519D00021B4E79C4521
:100C8800CFD10322D7E701349C4507F1010744601F
:100C9800C7D1012F4FF00008DAD102690132026191
:100CA800DBE701349C45446007D01746B9E72401C7
:100CB8003601C0E90146BDE8F081076901370761DF
:100CC800876907B982610127D1E700BF20020024A4
:100CD8002DE9F84300F10F0636093FD06E4C238901
:100CE800E3BBB4F8D8230D46E2BBD4F8CC02D4F861
:100CF800BC72B84232D24FF0010ED4F8B8C20138F3
:100D0800013F00216044CCF10108674418E04A1C07
:100D1800964255D913F00C0F37D18A1C964240F2EF
:100D2800AA8013F0300F36D10132964240F2A880E3
:100D38003F2B23D8511C8E4240F2A780B8420AD0DC
:100D480008EB000910F8013F9A07E0D013F00C0FE8
:100D580016D10122E2E7BEF1000F23D00023184686
:100D6800BDE8F883D4E9F712914226D2D4F8CC0230
:100D7800D4F8BC72874215D99E46BEE70021DDE74C
:100D880013F0300F0CD10122CFE703F03002B2FA92
:100D980082F25209CCE73F2B8CBF00210121CDE71D
:100DA8000022C5E772F088F9D4F8CC02D4F8BC72F6
:100DB8004FF0010EB842A0D3D0E772F07DF994E766
:100DC8004FEA8909A9EB0201012A01F1010704D1BF
:100DD80009F101039B08C4F8CC32D4F8D03207F0EB
:100DE800030EB80802314B454FEA4E0E38BF4B464A
:100DF8008945C4F8D0324FF0010303FA0EF31CF80A
:100E080000E043EA0E030CF8003012D34FF0020E54
:100E180001F003038808D4F8B8C201315B001CF85C
:100E2800008089450EFA03F343EA08030CF8003002
:100E3800EED2D4F8DC331201D4F8C4820021334452
:100E48003E01C4F8DC3308EB071318465DF0CAFE10
:100E5800EA07034683D50022D4F8C002F90807F050
:100E6800070748F806200122445CBA40224342544E
:100E78001846BDE8F8834FEA890909F10109A1E795
:100E88004FEA890909F102099CE74FEA89090A46EC
:100E980009F1030996E700BF20020024034B1A89D1
:100EA800012A02D808B1FFF7BFBC7047200200240E
:100EB800034610F00F001BD1164AD2F8C41299420B
:100EC80015D810B4D2F8C8429C420DD95B1AD2F892
:100ED800B842C3F301119A091B09A25C49000A41EF
:100EE80002F00302012A05D05DF8044B70477047F1
:100EF8000020704701301A18910802F00302615C63
:100F0800520041FA02F202F00302022AF2D0000172
:100F1800EAE700BF200200242DE9F84F0F460646F5
:100F2800002800F0CC80744D2C89002900F09280B4
:100F3800002C40F09380D5F8C4020F31D5F8BCC21C
:100F4800301A09094FEA8C0A030903F1010EBEEBB6
:100F58008C0F80F0BA80A446D5F8B8924FF00108FB
:100F68004FEA9E040EF0030B19F804404FEA4B0BAE
:100F780044FA0BF404F00304022C2BD02CB90CF126
:100F8800010C0CEB08048C4226D341455ED067D394
:100F9800C4448C4525D2002A60D0C209D5F8C012B5
:100FA80003F007033846895C194101F00101FFF796
:100FB8008FFE0446002851D04FEA081231465DF0F2
:100FC800CDFD2B89012B02D83046FFF72DFC20469A
:100FD800BDE8F88F08F101080EF1010EF245BFD106
:100FE800D3E75C1843449C4220D903F003029808D5
:100FF8004FF0020C0133520019F800709C420CFAB1
:1010080002F242EA070209F800200FD903F00302AE
:101018009808D5F8B8720133520017F800E09C42DE
:101028000CFA02F242EA0E023A54EFD1D5F8D03265
:10103800A1EB080206EB081000219C424FEA0212BD
:1010480038BF1C46C5F8D0425DF0CCFD344620467A
:10105800BDE8F88F012C01D8FFF7E6FB0024B6E7BE
:101068005C184FF0030CA8EB010104EA0C07A00878
:10107800012904F101044FEA470719F800E00CFAC6
:1010880007F72EEA070709F8007010D003EB080EDF
:1010980004F00302A708D5F8B83201345200D95D2C
:1010A80074450CFA02F221EA0202DA55F0D1D5F8B9
:1010B800CC328342CAD93446C5F8CC02C7E70146C8
:1010C8003846BDE8F84FFFF703BE0129BED029B165
:1010D8004FF00108002A7FF460AFBFE703F0030375
:1010E8008009D5F8B81203225B009A400B5C23EA0A
:1010F80002030B54DBE700BF2002002410B58AB0BE
:10110800044603A8FFF75AFD039A0949DDE90430AC
:101118000090204600F070FF2046069C079ADDE903
:101128000831CDE90014034900F066FF0AB010BD8C
:1011380040370C0864370C082DE9F843DFF858915C
:1011480007464749D9F8C42200F056FFD9F8BC121F
:1011580089006DD00025DFF8448115F03F0633D0B3
:1011680005F003067600AB08D9F8B822D35C334102
:1011780003F00303022B63D0032B5FD0012B4AD16A
:10118800D9F8C4222B01D25842455BD0354B9A423C
:101198005AD0354B9A425BD0344B9A4256D0344B96
:1011A8009A4253D0334B9A4254D0334B9A4251D03F
:1011B800324B9A4252D0324B9A424DD0314B9A42DE
:1011C80014BF68224D2227E0A9421ED9D9F8B802D7
:1011D8002C4602E001348C4208D0A20804F0030334
:1011E800825C5B0042FA03F39B07F3D0621B7F2A01
:1011F8000BD992092449384624F03F0500F0FCFE3B
:10120800D9F8BC32B5EB830F12D22A011F493846F0
:1012180000F0F2FEA7E72E221D49384600F0ECFE4A
:101228000135D9F8BC32B5EB830F4FEA830194D36B
:1012380038461849BDE8F84300F065BB6D22EBE776
:101248003D22E9E75422E7E74C22E5E75322E3E7AA
:101258004422E1E74122DFE74222DDE74622DBE7DD
:10126800AC370C0874880C0884800C0854910C085E
:1012780084910C08387D0C08AC7D0C082C850C0872
:10128800A0850C08188A0C08C8370C08E4370C0825
:10129800EC370C08A8370C0820020024CC920C0864
:1012A8000346064A506A1A684168C1F31E018A4219
:1012B80002D3521A1A6070470068F5E7200200242A
:1012C800014441F20553884204D398B2012838BF3B
:1012D8000120704703EB431310F8012B5340F2E74A
:1012E800034B044A5A620022C3F81022704700BF19
:1012F80020020024B0640D082DE9F04781460F460E
:10130800002942D0FFF7DCFF214B82465C6A0CB90A
:10131800204636E094F907300025E668002B06F1F0
:10132800FF3616DB013604F11808B54215D32468D8
:10133800EDE705EB06083A4648464FEA580808F133
:10134800060354F823105DF0B1FC0028CCBF4546D5
:101358004646731B012BECD8E4E7236933F81530B4
:101368009A4510D163695B5D9F420CD13A46494664
:1013780058F825005DF062FC28B96068C0F31E00CB
:101388002844BDE8F0870135CFE70120F9E700BF21
:10139800200200242DE9F04107460E469046FFF74B
:1013A800ABFF002840F09480FF2E03D949494A48F2
:1013B8000CF02DF8494CB8F1000F44D1D4F81002C4
:1013C800751CA8B1D4E985132B448B422BD942460E
:1013D8002944FFF7A3F98046D4F81002B8F1000FAA
:1013E8001AD14246D4F81812FFF798F9C4F81082B7
:1013F800802DA84638BF4FF080084046FFF773F9A4
:10140800C4F81002B8BB2846FFF76DF9C4F81002FB
:1014180080BB28460CF0C0FDD4F814322B44C4F825
:1014280014320028E4D0D4F818323946324600EB9A
:1014380003082B444046C4F8183247465DF08EFB3B
:10144800002308F8063031463846FFF739FF804652
:10145800606AD0E90252AA422AD36D000A2D38BF29
:101468000A25C5EBC5001830FFF73DF948B9C4F89F
:101478001002CEE7A8460023C4F81482C4F8183234
:10148800D1E700F11802616A02EB8502016002618E
:1014980002EB450242614A68C968C2F31E020A4467
:1014A800416862F31E010022C0E90115C260606252
:1014B8000169436921F81280911D9E54636A43F8BB
:1014C80021705868D968C0F31E0001311044D960F2
:1014D800BDE8F08110750B0820820C08200200245A
:1014E8000022FFF757BF10B504465DF0B9FB01466F
:1014F8002046BDE81040FFF7F3BF0122FFF74ABFBF
:1015080007B5019001A8FFF7CBFE019A036933F8EC
:10151800120003B05DF804FB07B5019001A8FFF7BE
:10152800BFFE019B4269D05C03B05DF804FB07B5C0
:10153800019001A8FFF7B4FE019B063350F8230081
:1015480003B05DF804FB13B5019001A80C46FFF742
:10155800A7FE019B4269D25C063350F82300226043
:1015680002B010BD2DE9F8431D4600230746884602
:10157800036016460B6013602B60154BDFF8549020
:101588005C6A64B92B68326813442B60BDE8F88341
:10159800336812F8010B0133034433600DE04C4506
:1015A800F0D03B6801333B60E268D8F80030134460
:1015B8006269C8F80030E368D1188A42E8D3204647
:1015C800FFF776FC2B68246803442B60D9E700BF3B
:1015D80020020024B0640D08F8B50B4B0B4F5C6A71
:1015E8000CB1BC4200D1F8BD04F11805E36805EB65
:1015F8008306B54201D32468F2E755F8042B044961
:10160800044800F0F9FCF4E720020024B0640D0857
:1016180015750B08CC700C0830B50023202511F87F
:10162800012F0AB9027030BD120600F101041FD55E
:1016380013B12023037020460B78124A03F07F036E
:1016480063B9013A12F8013F0446013013F0800FE4
:101658000BD003F07F0323700123E0E712F9014B5D
:10166800002CFBDA013BDBB2EAE700F8013CE9E7D2
:10167800012B04BF057020460B7800F8013B0223BC
:10168800CDE700BF1C750B0838B5436805461944FB
:101698000368994210D9037B1BB1002107480BF05E
:1016A800B6FE01F11004806824F0070408342146CE
:1016B800FFF729F82C60A86038BD00BF20820C080D
:1016C80070B504460E4611461546FFF7DDFF314654
:1016D8002A46D4E9013018445DF070FA63682B4457
:1016E800636070BD70B546680446B14228BF314694
:1016F8000D460121FFF7C8FFA368681C721B591922
:1017080018445DF05BFA6368A0680133284463609D
:1017180070BD012938B538BF0121044600250846A7
:1017280021606560FEF7D4FF2573A06038BD38B529
:1017380005460C460131FFF7ECFF6C6038BD00230D
:101748000160C0E9013201230373704738B51446BC
:101758000546FFF7DEFF024B2560636038BD00BF1A
:10176800C9160408037B10B5044613B98068FEF750
:10177800D7FF0023A36010BD38B505461020FEF73B
:10178800A7FF04462946FFF7C4FF204638BD10B519
:10179800044648B1037B13B98068FEF7C1FF2046B1
:1017A800BDE81040FEF7BCBF10BD000038B5037B94
:1017B80004460D461BB1002106480BF028FE0168BF
:1017C80080682944FEF79FFF2368A0601D441844E1
:1017D800256038BD20820C0838B504460D46FFF751
:1017E80053FFD4E901301D441844656038BDD0E981
:1017F800002310B59A42044602D10121FFF7D6FF13
:101808000021D4E90132D154A06810BD10B50C46AE
:101818000121FFF7E1FF047010BD7F29F8B50C46E0
:10182800CEB204D80121FFF7D7FF0670F8BD06F045
:101838003F06B1F5006FC1F3871546F0800607D261
:1018480065F03F050221FFF7C7FF46700570EDE719
:1018580005F03F05B1F5803FC1F3073745F0800536
:1018680008D267F01F070321FFF7B6FF457007701E
:101878008670DBE7A40C07F03F07042164F00F042F
:1018880067F07F07FFF7A8FF857004704770C67080
:10189800CCE738B505460C4608465DF0E1F9214627
:1018A80002462846BDE83840FFF70ABF10B514467F
:1018B800FFF718FF047010BD10B51446FFF712FFAC
:1018C800047010BD43688B422CBF591A0021416037
:1018D800704738B504461546084662688A4203D9F7
:1018E80029448A4201D8606038BDA368521A184456
:1018F80019445DF063F963685B1B6360F4E70846AD
:1019080011465EF0BDBB70B5054608460E465DF053
:10191800A7F9044620B102466B6831462868984703
:10192800204670BD2DE9F74F8A469DF83010914644
:101938000D9A11F0DF0F0646A2EB09023BD03029C1
:101948003BD1244F4FF0100813F0800539D002EB3B
:10195800D2746510A2EB6404002D39DDAB46D8457E
:10196800424673683946A8BF5A463068019298477C
:10197800019AABEB020BBBF1000FF0DCB9F1000FE1
:1019880005D04D4473684A46514630689847002C44
:101998000DDD2544A045C14673683946A8BFA14658
:1019A8003068A4EB09044A469847002CF2DC284624
:1019B80003B0BDE8F08F084FC4E70CAF4FF0010843
:1019C800C2E713F0010401D11546C5E71446D5E76F
:1019D8000025D3E7D4700C08E5700C082DE9F04316
:1019E800064689B00020119D9DF84880139F8DF808
:1019F8000F000AB381421ADA2D2249428DF80F20CE
:101A0800109A08AC0DF11009A2F10A008E46B1FB3C
:101A1800F3FC03FB1C126146092A8CBF12183032F2
:101A280004F8012D4C450ED07345EFD90BE0A807FB
:101A380027D52B228DF80F200029E1D130230DF175
:101A48001F048DF81F3015F040099DF80F301CD089
:101A580023B301222B460DF10F013046013FCDE99A
:101A68000082FFF75FFF814608AA2B4621463046D1
:101A7800121BCDE90087FFF755FF484409B0BDE8C0
:101A8800F0836A07D8D52022D4E7002BECD004AA2B
:101A98009442E9D904F8013C013CE5E79946E3E7BB
:101AA8002DE9F04F834691B0C8070D4691461E4672
:101AB8001A9C9DF86CA0DDE91C870BD4A90703D1FB
:101AC80029687B4B994205D028460DF049FB450013
:101AD80045F0010514F0810306D1BAF1300F03D1A6
:101AE800B845B8BFB8461F46284610F096FD0028EE
:101AF80018DBA20712D52B238DF820300DF1210316
:101B0800E006F6B21CD5B9F1020F0DD13020194606
:101B180001F8020B701C58700B4611E0630701D5E1
:101B28002023E9E708ABEBE7B9F1080F60D13021D2
:101B38001970A10549BF06F10E010133597002332E
:101B4800002108AA14F0200F0CA81970A3EB0203B7
:101B580009904FF01000059314BF2C230B46012F5A
:101B68008DF81F10C8BF44F04004029614F04002DC
:101B7800CDE90A01CDE9033244D02B460BAA09A8C6
:101B8800CDE900910AA910F013FC037881462D2BAA
:101B980006D18DF81F3000F101090B9B013B0B9317
:101BA800012F7EDD0B9D049BBD42B8BF3D462BB186
:101BB8009DF81F3003B10135059B1D44A84524F04D
:101BC800010A6BDD14F00104A8EB050567D1202399
:101BD8000195224637490093584623462546FFF784
:101BE800A1FE0646049B54464FF0300ABBB937E0C5
:101BF800B9F1100FA4D13020194601F8020B06F1F3
:101C0800170088E708AB0BAA0AA909A8CDE9009331
:101C18002B4610F0CDFB8146C2E700252E469DF8E5
:101C28001F305BB1002301220DF11F01584608F156
:101C3800FF38CDE90032FFF775FE0644059B63B116
:101C48000023012208A95846CDE90032059AFFF77A
:101C580069FE059B0644A8EB0308012FD8BF474639
:101C680023460B9A49465846CDE900A7FFF75AFE86
:101C780006444DB120230F4958460195009300238F
:101C88001A46FFF74FFE064409980CAB984201D05C
:101C9800FEF746FD304611B0BDE8F08F002500265E
:101CA800A0E7049B002BB8D11D461E464746D7E740
:101CB8004C870C081C0A0C082DE9F0431646984678
:101CC8008BB00746B2070A4602A84FF0200154BF5E
:101CD800C6F380032B23DDF848905CBF5B01DBB2C1
:101CE8000093139B0AF04CFAF305044610D5431CE5
:101CF8001F2B0DD800F1280200210DEB020425222C
:101D080004F8202C03F128021C466A4402F8201C1F
:101D180016F040051DD09DF808302F2B4FF000031A
:101D280019D8012202A9384609F1FF39013CCDE949
:101D38000032FFF7F7FD0DF109010546334622464B
:101D48003846CDE90089FFF7EDFD28440BB0BDE822
:101D5800F08302A9F2E702A91D46EFE72DE9F04F4B
:101D6800074689B0144600254FF00A080B461E4660
:101D780013F8012B0AB1252AF9D1B14207D2A6EBF3
:101D880001097B6838684A464D44984731460B78C4
:101D9800002B00F02981013120234FF0000A08466A
:101DA80010F8012B32B12B2A2CD01FD8202A2CD086
:101DB800212A2DD04FF000090E4611F8012BA2F16F
:101DC8003000092827D92E2A47D172782A2A27D005
:101DD80000220E4611F8010BA0F1300CBCF1090FDE
:101DE80021D808FB020BABF13002F2E72D2A05D00F
:101DF800302ADFD14AF0400A134601E04AF0010ACE
:101E08000146CCE74AF0020AFAE74AF0040AF7E783
:101E18004AF0080AF4E708FB0922A2F13009CBE7E7
:101E2800023654F8042B22EAE27B32786C2A08BF87
:101E380001363178002900F0D780782906D857294B
:101E48000ED8472956D8442900F2C0807B68012261
:101E5800314638680135984762E04FF0FF3BE4E7C8
:101E6800A1F15802202AF1D801A050F822F000BFB1
:101E7800B51F0408551E0408551E0408551E0408FD
:101E8800551E0408551E0408551E0408551E04084E
:101E9800551E0408551E0408111F0408331F0408A2
:101EA800991F0408D51F0408D51F0408D51F040866
:101EB800551E0408551E0408551E0408551E04081E
:101EC800551E0408551E0408551E0408551E04080E
:101ED800011F0408471F0408551E0408711F040841
:101EE800551E0408B51F0408551E0408551E04088D
:101EF800B51F04085029A9D1CDF804A0CDE90239AD
:101F08006123009310235FE054F8042BCDE90039D6
:101F180053463AB1042236493846FFF703FD0544D3
:101F2800711C23E705223349F6E754F8042B07A967
:101F38008DF81C200122CDE900395346ECE707A9AA
:101F480054F8040B0493FFF7FEFABBF1FF3F014678
:101F5800049B04D0079A934538BFCDF81CB0079A64
:101F6800CDE900395346D7E754F8041B05930846D2
:101F780004915CF075FEBBF1FF3F0246DDE90413F6
:101F880002D0584528BF5A46CDE900395346C3E721
:101F9800CDE9023961230122CDF804A000930A2378
:101FA80054F8041B3846FFF719FDB8E74A1C21F01E
:101FB8000F01CDF804A002F006020F39CDE902396D
:101FC800C9B2C2F1100300910022E9E70734524672
:101FD800384624F00704B4EC020BCDE9009BB7EEB9
:101FE800C00BFFF769FE9AE7284609B0BDE8F08FF5
:101FF800BBAE0B08C0AE0B080EB403B503AA52F86B
:10200800041B0192FFF7AAFE02B05DF804EB03B0CF
:1020180070470346007893F90020002A0ADA00F096
:102028007F004022104206D113F8012F02F0C001B0
:10203800802904D0704720EA02005208F2E702F033
:102048003F0242EA8010EFE7431C1846013302784A
:1020580002F0C002802AF8D0704703460020994257
:1020680000D8704711F8012D02F0C002802A18BF6D
:102078000130F4E703460144002099421A4600D88B
:1020880070471278013302F0C002802A18BF01306D
:10209800F3E700007F289DBF024B185CC0F34000A7
:1020A80000207047F6700C087F289DBF024B185C13
:1020B800C0F3C00000207047F6700C087F289DBF51
:1020C800024B185CC0F3800000207047F6700C08C3
:1020D8007F289DBF024B185CC0F38010002070471A
:1020E800F6700C087F2809D8064B1B5C13F00C0F00
:1020F80006D1A0F15F03584258417047002070474D
:1021080001207047F6700C087F289DBF024B185CB1
:10211800C0F3001000207047F6700C087F289DBFA0
:10212800024B185CC0F3401000207047F6700C0892
:10213800024608B5FFF7E8FF02EB401008BD08B5F6
:102148000246FFF7EBFF404220F01F00104408BD95
:102158003038092884BF20F020000738704702462D
:102168000144002010B5E524914203D8B0FA80F06C
:10217800400917E012F8013B30B103F0C003802B8F
:1021880011D10138C0B2EFE7BF2B09D9F72B09D815
:10219800DB0803F0060344FA03F303F00300E3E764
:1021A8001B06E1D510BD0020FCE7023981420B4631
:1021B80003D31A880239002AF8D00233181A4010BB
:1021C8007047B2EB131F70B504464FEA13101BD9C2
:1021D80001EB4001101A03F00F0326460246012ABC
:1021E80001F102010CBF31F8025C51F8025C013ABE
:1021F80025FA03F526F8025BF1D104EB400434F824
:10220800023C03B9013870BD0020FCE7F0B5059C1D
:102218000025121B2E46AC420FD101EB4403174692
:1022280000EB4404411A9FB904EB420316B1023390
:1022380024F81260181A4010F0BD31F8157033F800
:1022480015C067443E4420F81560360C0135E2E7B6
:102258001D88013F35445D522E0C0233E3E7F0B48C
:10226800049F00260D463446D11BB7420BD105EB1F
:1022780047030A4600EB4707451B7AB907EB4101BC
:10228800F0BCFFF792BF35F816C033F81620644447
:10229800A41A20F8164024140136E6E71E88013AED
:1022A80034445C5324140233E7E72DE9F043079CD8
:1022B8000239DDF828E0154684464FF6FF78A4EB8E
:1022C8000209DDE9087655B900EB42011FB1012387
:1022D800023120F81230BDE8F043FFF766BF31F84D
:1022E800024F013D4444264405EB0904A5422ABF98
:1022F80033F8024B4FF6FF744444744486EA040EE4
:10230800360C17FA8EF74FEA144E2CF8027B3F0C66
:10231800D9E7022938B538BF0221044680680D463E
:1023280018B12368B1EB930F07D96900FEF7EBF9F1
:102338002368A06065F39F03236038BD38B5044661
:102348000C20FEF7C5F9054623682278C3F39D00E3
:1023580023F0030302F00102400013432B6063687B
:102368006B60FEF7B5F9A8602268A168C2F39D0208
:1023780052005CF0F3FB284638BD994210B511D3E2
:1023880013D800EB410002EB410209B9084610BD21
:1023980030F8023D32F8024D1B1B002B02DB04D142
:1023A8000139F2E74FF0FF30F1E70120EFE710B510
:1023B800044638B18068FEF7B3F92046BDE81040FE
:1023C800FEF7AEB910BD70B50C4602210546FFF701
:1023D800A0FF002C2B78B5BF0122002261422146C4
:1023E80062F30003AA682B70012388B21446090C13
:1023F8001E4622F8020B03F10103F6D16E6020801D
:1024080070BD0023C0E900338360704728B10378AA
:102418009B0702D48068FEF783B9704738B5044635
:102428000D464968FFF775FF2A782378A06862F39C
:10243800000323706A68A96862605200BDE83840EA
:102448005CF08CBB0A4629B90178426062F300014E
:1024580001707047FFF7B7BF08B5FFF7D2FFBDE8B7
:102468000840FFF7EFBF920042F0020210B402608A
:1024780000225DF8044BC0E901211946FFF7E2BFCD
:10248800F8B514461D469DF8187004210646FFF756
:1024980040FF22462B4627B1002D0CDA624265EB3D
:1024A8004503317867F3000131700021716052EA09
:1024B800030102D1F8BD0027F3E7D6E901104C1C4F
:1024C800746020F81120120C42EA03421B0CEEE75C
:1024D8002DE9F3418DED010A8046019D0378EA0F4D
:1024E80062F300030370C5F30F4313F4FF430BD1EA
:1024F80098F8003023F0010388F800300023C8F86A
:10250800043002B0BDE8F081B3F5FF4FF0D0C5F359
:10251800C754A4F17F06002EEADB05D1012102B0E1
:10252800BDE8F041FFF74FBF162EC5F31605A4F11D
:102538006F07D8BFC6F1170645F40005C8BF963C1B
:102548004FEA2717D9BFF540002609362411D8BF0E
:1025580034463946C8BF06F00F06FFF7DAFEC8F85A
:1025680004702CB162000021D8F808005CF03AFB36
:102578004EB105FA06F2C6F11006D8F80830F54053
:1025880023F814200134A742BBD0D8F8083023F828
:1025980014502D0CF6E72DE9F8438F18C2F35B02AF
:1025A80004460D46511C9846089EFFF7B2FE237854
:1025B800AC4600221FFA86FE68F300032370BC4570
:1025C8006046626002D3401BBDE8F88301780CF1D5
:1025D800010CA1F13003092B05D9A1F14103192BF5
:1025E80012D8A1F13703B342EDD2A06890468146D4
:1025F800B8F1000F0FD100EB420113B1023120F8FE
:102608001230091A4A10DAE7A1F16103192BDAD856
:10261800A1F15703E7E7B9F8001008F1FF380EFBFE
:10262800013329F8023B1B0CE2E7F8B504461546CE
:102638001E46C1B1531E4FF0FF371E44E900204625
:102648000F310909FFF765FE2378002123F0010304
:10265800616023700B4645B9A06800EB4101FFF7A4
:10266800A4FD6060F8BD0127E8E700220F2B0ADC13
:102678003078013D3E4400FA03F003F1080342EAD2
:10268800000292B2F2D1A0680131103B00EB410088
:10269800616020F8022CDEE738B5057804460B782F
:1026A80005F0010203F00103981A08D1D1E90132BB
:1026B800D4E90110FFF761FEEB0748BF404238BD7F
:1026C800884210B5044601D0FFF7A8FE237823F00E
:1026D8000103237010BD884210B5044601D0FFF7EE
:1026E8009DFE63683BB12378C3F3000282F00102C8
:1026F80062F30003237010BD88421FB5044601D061
:10270800FFF78CFE626862B901212046FFF701FEDF
:102718000123A26813806360237843F001032370C8
:1027280010E02378D9070FD523F001032370012384
:102738000093A168ADF80E300DF10E030846FFF7BF
:102748008EFD606004B010BD511C2046FFF7E1FD0E
:1027580001230093ADF80E300DF10E03D4E90121E9
:102768000846FFF753FD6060D6E74B682DE9F04750
:1027780005460E46144603B12AB931462846BDE837
:10278800F047FFF74BBE02F10F014FEA111803EBB8
:102798001111FFF7BEFDA96814F00F044FF0000CEB
:1027A800D6E9012308BF102408EB020703EB420314
:1027B800C4F1100407F1004001384FEA400901EB69
:1027C80040001146864609BB6FF001032CFA04FC51
:1027D800C8F1010809F102095A43831820F802C018
:1027E8004FEA480203EB4803524218465CF0FAF9F4
:1027F80003464B4417B133F8022D9AB12B786F601A
:10280800327862F300032B70BDE8F08733F802AD2D
:1028180001394AEA0C0C2CFA04FA4FEA0C4C2EF84F
:1028280002A9D0E7013FE5E72DE9FF410D464968D8
:102838000646144601B132B92946304604B0BDE80F
:10284800F041FFF7EBBDFFF764FDB768D5F80880E6
:1028580023466A6838464146FFF7B3FC3378706010
:102868000246297861F300033370DB070AD5002399
:1028780020096968ADF80E30994201D0834204D12D
:1028880081420AD804B0BDE8F08138F813509DB1F0
:1028980001238142ADF80E3012D904F00F04012350
:1028A80038F8101003FA04F4013C214206D1BDF8AF
:1028B8000E30002BE6D003E00133DDE7ADF80E3033
:1028C800012312B93B807360DCE7009339460DF1B0
:1028D8000E033846FFF79AFC7060D3E72DE9F34101
:1028E8000D465768D1F8048014463B469268064660
:1028F8004146A868FFF741FD01301FBF23462C461B
:1029080047461D4623782A785340DB0719D4791C9B
:102918003046FFF7FEFC6B680093AB68B068D4E9FB
:102928000121FFF773FC70602378327800280CBF10
:10293800002303F0010363F30002327002B0BDE824
:10294800F08139463046FFF7E4FC6B680093AB68CA
:10295800B068D4E90121FFF782FCE4E72DE9F341EF
:102968000F464E68D2F804801446314692684346B2
:102978000546B868FFF701FD01301DBF23463C46F8
:10298800B046012618BF1F46237818BF00263A789C
:102998005340DB0719D508F101012846FFF7B9FCB8
:1029A8007B680093BB68A868D4E90121FFF72EFC77
:1029B800686018B1207800F0010070402B7860F34F
:1029C80000032B7002B0BDE8F08141462846FFF7AE
:1029D800A0FC7B680093BB68A868D4E90121FFF7D5
:1029E8003EFCE5E74B682DE9F04F0C46516815466B
:1029F80085B08B42064621BF1946254613461C461C
:102A08002B78DB0722D4237813F001071ED1FFF7B8
:102A180080FCB068AD683B46D4E9011C99420CD1F2
:102A280000EB4101FFF7C1FB00237060327863F3CC
:102A38000002327005B0BDE8F08F35F813203CF87D
:102A48001340224020F813200133E7E701313046D4
:102A5800FFF75FFC2F78237807F00109D5F804C049
:102A680087EA030147F30007B06803F0010AC94386
:102A780043F30003A268834601F0010E41F300010D
:102A88009BB289B200930291B9B267460191A968D5
:102A9800A1F102086168A1EB0C0103918FB900EB69
:102AA8004C01BEF1000F03D00123023120F81C3085
:102AB800FFF77BFB706022782B78C2F3000213408B
:102AC800B4E738F8021F013F019B5940039B894432
:102AD800D9198F4225BF32F8021B009B0099594033
:102AE800029B8A4409EA0A014FEA1A4A4FEA19493D
:102AF80059401EFA81F14FEA114E2BF8021BCDE71F
:102B08002DE9F84F4B680D465168144606468B422E
:102B180021BF19462C4613461D462378DB0731D4BE
:102B28002B7813F001072DD1FFF7F3FBA068646839
:102B38003B46D6F808C0D5E9012EA41A9A4213D10B
:102B48000CEB4203214600EB4202ACEB0000A1B9BA
:102B580003EB4403A3EB0C0358103378706061F364
:102B680000033370BDE8F88F30F813103EF81350A7
:102B780029432CF813100133E0E715880139155261
:102B88000232E4E701313046FFF7C3FB27782B78A0
:102B98004FF0010A616807F00108B06803F0010905
:102BA800A46843F3000383469BB2A4F1020CD5E961
:102BB80001E247F300050F46AEEB010EADB22FB9A7
:102BC80000EB4101FFF7F1FA0121C6E73CF8024F9B
:102BD800013F6C40A0440EEB0704A7422ABF32F81D
:102BE800024B1C465C40A14448EA09044FEA1949D3
:102BF8004FEA1848E4431AFA84F44FEA144A2BF8C7
:102C0800024BDCE74B68F0B50D465168144685B0B9
:102C18008B42064621BF194613462C461D46277887
:102C28002B785F4017F0010736D1FFF772FBB068C9
:102C3800D4E90121247814F00104D5E9015324D101
:102C4800521BA54212D101EB4503144600EB450582
:102C5800411AACB905EB4201FFF7A7FA0027337810
:102C6800706067F30003337005B0F0BD31F814707D
:102C780033F814C087EA0C0720F814700134E0E731
:102C88001F88013C5F520233E3E7CDE90277CDE9C3
:102C98000057FFF70AFBE1E701310127FFF739FB8E
:102CA8002B78DB4303F00103039323780197DB437D
:102CB80003F0010302936B680093AB68B068D4E932
:102CC8000121FFF7F2FACAE74B682DE9F04F0446F5
:102CD80085B00E4615460BB1536843B9237823F0E7
:102CE800010323700023636005B0BDE8F08F8142C3
:102CF8002DD1FFF723FBA542064607462ED06B6869
:102D0800204671681944FFF704FB22680021A06877
:102D1800C2F39D0252005BF065FFB368D4F808E087
:102D28000022D6F804900193F446AB680EEB4908EC
:102D3800114602936B680393039B934233D0ACF123
:102D48000200DDF804B00023CDF800901AE08242BA
:102D580006D1FFF7F3FA05460746D0E70546CEE762
:102D68000027CCE730F802AF53443BF802AB1946D2
:102D7800029B33F8123003FB0A13009903800139D0
:102D88001B0C009100990029ECD14146881C13B115
:102D98000146A8F80030A1EB0E010CF1020C01323B
:102DA80080464910C8E7616038462A78337853402E
:102DB800227863F30002227005B0BDE8F04FFFF7F8
:102DC800F6BA4B6870B50546144613B11378DA079E
:102DD80006D52B7823F001032B7000236B6070BDA0
:102DE800636823B90121BDE87040FFF7ECBA0846D3
:102DF800FFF7A4FA06462046FFF7A0FA0121044689
:102E08002846FFF7E0FA636883B1A3681B88DB07ED
:102E180004D5324629462846FFF756FF0123D4E950
:102E280001210846FFF7CDF9606038B93046FFF751
:102E3800BEFA2046BDE87040FFF7B9BA32463146BF
:102E48003046FFF741FFDEE72DE9F04F0C465168A9
:102E58008FB09346013105460393FFF75AFADBF822
:102E680004200021A8680026013252005BF0BAFE57
:102E78002B786E60204623F001032B70DBF80410DA
:102E88000131FFF746FA59462046FFF7C7FA039B78
:102E9800D4F80890D4F8048048464146D3E901376D
:102EA80002933A46AB680493029BFFF766FA002840
:102EB80033D10123049A606013806B6023786268C1
:102EC800002A0CBF002103F0010161F300030399FC
:102ED80023709BF8003009784B40DB0740F1FD80F8
:102EE8006B682978003B18BF012363F30001297040
:102EF800002A00F0F2800BA84FF0FF31FFF7ACFA80
:102F08000BAA29462846FFF7E9FC039A21462046E2
:102F18000FB0BDE8F04FFFF7E1BC013001D16E60A2
:102F2800CCE7029B03F100423346013A4FEA420ADA
:102F380037F812100E0403F101004ED509EB4801D1
:102F48004FF0000C9BB208F101000191CE46C3F18D
:102F58001006023129F818C0059660608E4540D3E6
:102F680037F812209A400592029A012A09D907EBEC
:102F78000A02C3F1100132F8022CCA400599114324
:102F88000591029A801A049A686000F1004001389D
:102F980002EB400207920AF102020992BA1E089255
:102FA800D4F804A0029A524529D30AF1004A002213
:102FB800C3F110000AF1FF3A09EB4A0AD14573D967
:102FC8006FF000416B682BB15A18049830F8122042
:102FD800002A73D06FF0004175E04900034689B2BA
:102FE800A8E7BEF8008008FA03F64CEA060C059E2E
:102FF80028FA06F82EF802CB1FFA88FCAEE7019AE9
:103008000198118832F8022C42EA01420599B2FB74
:10301800F1F20999411A0020069186460899069FFF
:103028000E460199B9420DD809880844A8BB0799EA
:1030380021F80229019A0791023A01920AF1FF3216
:103048006260ADE736F8021FB7F80080994018FAB9
:1030580080F841EA1E4E1FFA8EF151431FFA81FC97
:10306800090CA8EB0C0CC1EB204127F802CB01EBB3
:103078002C40D6E738F8021F994041EA1E4EBCF8AA
:103088000010394411FA8EF10F0C2CF8021B01992B
:103098006145EFD83844013AC8E70027DDF82080B9
:1030A800DDF818C0BE46F2E7BAF8001041FA03F698
:1030B800814032432AF802298AB27FE7013B6B60DC
:1030C80080E7013B63606368002B3FF4F7AE5A1852
:1030D80039F81220002AF4D0F0E60FB0BDE8F08FDE
:1030E800F0B51F464B6885B004460D4616464BB1F1
:1030F8001378DA0706D47B68012B0BD1BB681B88D1
:10310800012B07D1237823F0010323700023636088
:1031180005B0F0BD01212046FFF755F97368002B73
:10312800F6D02846FFF70AF905463046FFF706F9B4
:10313800002306460393CDE901337368B3B1B3683E
:103148001B88DB070AD52A4621462046FFF7BCFD27
:103158003B462246214601A8FFF776FE0123D6E921
:1031680001210846FFF72DF8706058B901A8FFF74C
:103178004DF92846FFF71BF9304605B0BDE8F04089
:10318800FFF715B92A4629462846FFF79DFD3B4615
:103198002A46294601A8FFF757FECEE7D0E90121C4
:1031A8000346002001EB420210B5914204D31B787C
:1031B800DB0748BF404210BD32F8024D44EA0040E8
:1031C800F3E730B5D0E90124002304EB420294422E
:1031D80006D302780120D20748BF5B420B6030BD9E
:1031E800B3F5004F04D232F8025D45EA0343EEE737
:1031F8000020F4E72DE9F74FDDF830C006460F460A
:10320800019209B30CEB0300012400211A46A246DF
:103218008E46D6E90189B8F1000F17D10199002926
:1032280045D0002A43D1002B41D0002F3BD09CF839
:1032380000302CB1DB43347884EAD31404F0010461
:10324800204603B0BDE8F08F6046DDE739F8025B41
:103258000EF1100E45EA0141BEF1070F02DC08F13C
:10326800FF38D8E796F800B08DB21BF0010F1FBFEA
:10327800ED435AFA85FA1FFA8AF5CAF3072A42B9C2
:103288001CB1EDB2B5FA85F46409AEF1080E090A6D
:10329800E2E7EDB227B100F8015C0138013AF4E742
:1032A80000F8015BFAE7634413F8013CC1E733789F
:1032B80013F0010F14BFFF210021002F18BF604633
:1032C8005BF090FCBCE70000D0E901329FED0C0AEE
:1032D80002EB43039FED0B7A9A4205D30378DB0791
:1032E80048BFB1EE400A704733F8021D07EE901A46
:1032F800F8EEE77AE0EE077AB0EE670AECE700BF8F
:1033080000000000000080472DE9F74F1E46446882
:103318009DF8303081468A4615460D9F0193A4B921
:103328008AB1551E3A4615F8011F134641B9302295
:103338001A70002203F8012FD81B03B0BDE8F08FE4
:1033480002F8011BEFE73B46F1E76400BB46204665
:10335800FDF7BEF980462246D9F808105BF0FEFB5F
:103368003B4608EB0402A6F13A00941E0026A0454D
:10337800A4461DD930365C46392E88BF361804F865
:10338800016B4646B242B4461DD84046FDF7C8F91F
:1033980055BB99F80030DB0744BF2D2304F8013BE7
:1033A8003B46621E9A4231D80023E01B2370C4E7D3
:1033B800BCF800C04CEA0646B6FBFAFC0AFB1C66E1
:1033C80024F802C9D3E7BCF8001002360029D9D086
:1033D800019939B1E61A032E04D10BF102048BF8D6
:1033E80001102346A346C0E728465BF039FC2A189B
:1033F80059461346AB4204D8954288BF002004447E
:10340800C7E713F8016D01F8016FF3E71978107831
:1034180003F8010B02F80119C4E7D0E9023293421C
:103428003DBF5A1C826018784FF0FF307047036820
:10343800013B033310B5044602D84068FDF770F924
:103448002046BDE81040FDF76BB90000F8B50C4602
:103458001F46164605461020FDF73AF9054B8460CD
:10346800C0E900743444C4606B60034B2860AB60EF
:10347800F8BD00BF23340408373404084268064BFB
:103488009A4207D103681A68013203D19868014447
:1034980099607047002070472334040802690A2A9B
:1034A80010B5044635D1836A013383620123A269CA
:1034B800E36263696261226F2361002A31D0616E21
:1034C8008A423BBF501CA16E0022206738BF8A5C2D
:1034D800A2613BB9E26963662261226A236762617D
:1034E800626AA26163690D2B08D10A22A36993421B
:1034F800626103D1D4E901039847A061A36901334C
:1035080006D163695A1C03D00A2B1CBF0A23A36186
:1035180010BDC36A092A04BF073323F00703013328
:10352800C5E7D4E901039847A061DBE701690246D2
:10353800272901D0222912D1012024E05369272B01
:10354800FAD0222BF8D0722914D1662B16D19069A3
:103558002728F1D0A0F12203584258417047A1F121
:103568006200132804D8084B034113F00100E5D08A
:1035780000207047662904D1722B00E0622B02D12B
:10358800E5E76229F8D07047EEFFF6FF38B5044644
:103598000D462069431C1AD00A2806D10DB1636B69
:1035A800B3B12046FFF77AFFF3E7FEF773FD002873
:1035B800F7D12369232B08D12046FFF76FFF236932
:1035C8005A1CE6D00A2BF7D1E3E75C2B02D0002582
:1035D800284638BD63690A2BF9D12046FFF75EFFFC
:1035E800DFE70000436E2DE9F04F044685B0A3B134
:1035F800036F93B929216030FEF708F92369E36165
:1036080063692362A3696362A36E1A7822615A7898
:1036180062619B78A361032323670023012120466D
:103628006365FFF7B3FFA36A276B6364002FE36A40
:10363800A36407DA0723013784F84C30276305B001
:10364800BDE8F08F04D00623013F84F84C30F5E73D
:10365800002835D039462046FFF798FF0523E56A4C
:1036680084F84C30013DD4E90F3003F10042013AAF
:1036780030F812209542E2D009D8013B30F81320E7
:10368800954218D3DBD0022384F84C30D7E7A16BDE
:103698008B4207D308314900FDF735F8A36B206446
:1036A8000833A363E36B5A1CE26320F81350236BBF
:1036B80001332363C3E7226BE363013A2263DCE748
:1036C80025696E1C02D184F84C00B8E72046FFF744
:1036D8002DFF0646002800F0C18184F84C7023694C
:1036E800722B6BD008D8622B0DD0662B70D0B946E0
:1036F8000025A8460B230EE0A3F17505D5F10009B6
:1037080049EB0509F4E763690025722B68D0A846E0
:103718004FF001090C2394F84C20002A69D184F851
:103728004C30B9F1000F08D02046FFF7B7FEB9F1C9
:10373800020F02D12046FFF7B1FE23692046222B53
:103748000CBF222327230093FFF7A8FE2369009AC2
:10375800934251D163699A424ED120464FF00309F2
:10376800FFF79CFE2046FFF799FE35B1636E23B93B
:103778009E4904F16000FEF78CF804F16002002312
:1037880004F1500A01922169481C00F06181B9F1E5
:10379800010F02D10A2900F05B814B452FD319464E
:1037A80004F15000FEF78EF801212046FFF7EEFEE7
:1037B8002046FFF7BBFE002891D140E76369622BE2
:1037C8000DD0662B10D00025B0464FF0010991E7C7
:1037D80063693546722B08D04FF00008F5E70025DD
:1037E800B0464FF0020995E73546B0464FF002095A
:1037F80080E79A4295D022E74FF00109B5E7009A91
:103808008A4216D015B121697B291FD05C2940F066
:103818001C8120460291FFF741FED4F810B00299AE
:10382800B8F1000F6AD004F15000FDF7F6FF5946D1
:10383800BFE00133009950460293FDF7EEFF029B6B
:1038480020460293FFF72AFE029B9CE72046FFF7DB
:1038580025FE21697B290AD15046FDF7D7FF20466E
:10386800FFF71CFE7B215046FDF7D0FFCBE7282150
:103878000198FDF7CBFFD4F864B000222169481CF9
:103888000FD03ABB3A290CD07D290AD0212921D161
:1038980060697238012822D8A0693A2801D07D28A9
:1038A8001DD1D4E91921881810F8010C3D2808D138
:1038B800A2EB0B0259445046FDF702FF636E013B31
:1038C800636601982921FDF7A1FF2C210198FDF7D6
:1038D8009DFFC7E721F020005B280AD10132C9B259
:1038E80001980292FDF792FF2046FFF7D7FD029A52
:1038F800C4E75D2808BF02F1FF32F0E7BBF1780F9B
:1039080009D8BBF15B0F08D8BBF1220F44D023D8EC
:10391800BBF10A0F4FD05C2185E7ABF15C021C2A92
:1039280068D8DFE802F039676767678626676767E0
:103938002E676767676767672A6767670F67283053
:103948002C674A000D2194F84C300B2B73D104F1ED
:103958005000FDF762FF2EE0BBF1550F13D0DAD807
:10396800BBF1270F18D0BBF14E0F43D120480AF006
:103978001DFD0821E7E70921E5E70A21E3E70B2117
:10398800E1E70C21DFE794F84C200C2A06D15C21F2
:1039980004F15000FDF741FF5946D4E7BBF1750F1C
:1039A80014BF4FF0080B4FF0040B0021BBF1010BC3
:1039B80006D24B1C36D1002342E74FF0020BF4E746
:1039C80020460291FFF76AFD226910460392FEF72E
:1039D8007FFB002800F056810299039A09011046DE
:1039E8000291FEF7B5FB02990144DFE70BAF0B0824
:1039F80014AF0B08ABF1300107298CD84FF0030B3B
:103A080008E020460291FFF749FD22690299303A01
:103A180002EBC1016269303A072ACAD8BBF1010B2F
:103A2800EFD1C6E7B1F5881F8DD3012384F84C3058
:103A3800C1E7072187E7FF29F7D80C2BF5D1C9B2D1
:103A480004F15000FDF7E2FEB5E7C9B25046F9E7C8
:103A58004B453CBF032284F84C20A0E62846FEF7DD
:103A680023FB2169D8B95F2919D07F2917D80846BF
:103A7800FEF724FB002856D123692E2B4ED00026B2
:103A8800834D2F781FB12369BB4240F0A4802046A4
:103A9800FFF704FD002F40F0A6800123F4E508237A
:103AA80004F15005C9B284F84C302846FDF7AEFE43
:103AB8002046FFF7F3FC2069421C1BD12846754FAE
:103AC800FDF795FE0025064657F8041B30465BF0C7
:103AD800D5F800281CD10E35EDB2112D84F84C50C4
:103AE8007FF4ADAD6C4BD3F81C32002B14BF0E2302
:103AF8001023C9E5FEF7D8FA40B920695F2805D038
:103B08007F2803D8FEF7DAFA0028D7D0217CCCE743
:103B1800FFF695AD0135242DD6D190E56069FEF705
:103B2800CDFA0028ABD021692E292AD10A2384F89E
:103B38004C30002504F150060A273046FDF76DFE8B
:103B48002046FFF7ABFC2069431C3FF478AD4DBB22
:103B580020F02003452B25D16521304684F84C7090
:103B6800FDF75BFE2046FFF799FC21692B2901D060
:103B78002D29E8D13046FDF750FE2046FFF78EFC90
:103B8800E1E70923302984F84C30D2D1636943F046
:103B98002003623B162BCCD8404DDD4015F00105C3
:103BA800C8D1C6E7FEF780FA28B121692E290DD1C0
:103BB80084F84C70DEE72069FEF780FA0028F4D11B
:103BC80023692E2BF1D05F2BD7D038E521F02003C5
:103BD8004A2BCFD1ECE7652F01D0632F00D10135F7
:103BE800013601354DE7212F08D123693D2B7FF49C
:103BF80054AF2046FFF752FC392345E52E2F0FD14D
:103C080023692E2B02D163692E2B01D05C233BE55F
:103C18002046FFF743FC2046FFF740FC0D2333E521
:103C28000335334615F8027C632F18D0652F16D05C
:103C38001B4AD35C84F84C30543BDBB2052B3FF66F
:103C4800FEAC012202FA03F313F02A0F17D113F086
:103C5800150F3FF4F4AC636B13446363EFE415F89A
:103C6800012C01362169914207D12046FFF716FC45
:103C78003346652FDCD00235D4E7632FFAE7636B50
:103C8800013BEAE70123014684F84C305BE600BFBC
:103C9800C6AE0B0878710C082002002401204000F1
:103CA80008720C087FB501AD0646742085E80E0041
:103CB800FCF70EFD0446034695E8070043F8046B3D
:103CC800002583E8070001236FF001021420C4E9EE
:103CD8000A320A22C4E90C55C4E90E23FCF7F8FCA1
:103CE8002021206404F15000FDF713FD294604F15A
:103CF8006000FDF70EFD236C204625671D802561B9
:103D0800C4E90555FFF7CAFB2046FFF7C7FB204665
:103D1800FFF7C4FB2046FFF765FCA36C012B06D018
:103D280094F84C30052B1CBF062384F84C302046F1
:103D380004B070BD30B585B0054601AC2046FFF72C
:103D480085FB284694E80E00FFF7ACFF05B030BDB0
:103D580030B585B00446014601AD284624F016F872
:103D6800204695E80E00FFF79DFF05B030BD10B561
:103D7800044690B1C3684068984704F15000FDF7C5
:103D8800F1FC04F16000FDF7EDFC206CFCF7C8FCC9
:103D98002046BDE81040FCF7C3BC10BDD0E9043292
:103DA800013B036152F823007047036942695B1ABB
:103DB800013B52F823007047F8B5446A06460D46A1
:103DC800B4B1D4E900030B44834222D9083100225C
:103DD80001442046FCF7A2FC0246B8B961682046B7
:103DE8000831FCF79BFC63682360336A63603462C4
:103DF800802D2F4638BF802707F10800FCF768FCA4
:103E08000023076004464360706202E023682B4485
:103E1800236060680834054444F8045C2044F8BD15
:103E280038B50D460C211446FFF7C6FF4FF49D72B6
:103E38000560C0E9012438BD38B5D0E9033204462D
:103E48000D469A4208D3103340699900FCF75BFC91
:103E5800E36860611033E360D4E90432591C2161DE
:103E680042F8235038BDF8B504461D460F4616469D
:103E7800D0E90003834208D31030C100A068FCF7E2
:103E880042FC2368A06010332360D4E90103421C7C
:103E9800626003EBC00253F8301067F3170143F870
:103EA8003010D6705560F8BD10B48469CAB20023CA
:103EB800616C5DF8044BFFF7D6BF10F001021CD10E
:103EC80010F003030CD000F00F03062B15D00A2BBB
:103ED80011D100090D3803288CBF0020012070473C
:103EE80070B102793A2A08D02D2A08D18068B0FA30
:103EF80080F0400970471046704701207047184607
:103F080070470000C20702D540F0010070478307E0
:103F180010D000F00F020309062A04D120F00F0088
:103F280040F0060070470E3B022B09D8064A52F8AB
:103F38002300704730B103793A2B03D1806870476A
:103F4800024870470248704734720C085C8E0C08AF
:103F580090920C0838B505460C46FFF7AEFF38B10D
:103F68002846FFF7CFFF0BF04BFA031B5842584186
:103F780038BD2DE9F0410F4605461446114689B96A
:103F8800204612F051FD014600F10808A4B90A467E
:103F980028463946FFF744FF01462846FFF74CFFFD
:103FA800012007E001392846FFF7FFFEFFF785FFEC
:103FB8000028E4D1BDE8F0812846013CFFF7EEFE79
:103FC8000646FFF79FFF48F82400002EDED0B3070F
:103FD800DCD1686A00F108039E42D7D342681344D3
:103FE8009E42D3D273681B0A0233A2EB830242605B
:103FF800CCE70000F7B5866905460F4696F84C20D1
:10400800A2F10803042B51D8DFE803F003222A3772
:104018004B00D6E91510FDF763FA902F4FEA00140C
:104028000DD1002244F0060105F128000AF096FDA2
:1040380028B14268D3071BD542F0010001E044F0E3
:1040480002000146284603B0BDE8F040FFF7F4BE81
:1040580000223346D6E9151008F0DEFA0246E9E7F1
:10406800009600230122D6E9151008F055FB0246F8
:10407800716C2846FFF7D4FEE3E7D6E915100A2944
:1040880006D8FDF72DFA30B1000140F00600D8E758
:10409800FDF732F9F7E7D6E91521064810F061FB7C
:1040A800E5E7D6E9151010F0C9FBE0E7120142F088
:1040B8000A00C6E784910C0810F00102034604D0F8
:1040C80040F001030B600120704790B110F003002D
:1040D80010D11A793A2A0ED19B6813F001000B60AF
:1040E800F1D19A0707D11868034BC31A58425841AF
:1040F80070477047104670474C870C080021FFF73F
:1041080029BF0121FFF726BF2D2A2DE9F04F0446CC
:1041180087B0884616461D460BD10021FFF745FE9D
:10412800C0B1830702D10379922B13D007B0BDE841
:10413800F08F922A2ED10021FFF737FE014648B1B1
:10414800870707D14768FBB2952B18D1013D204658
:10415800FFF724FEA6F12303DFB2092F00F2F58052
:10416800092B00F2D980DFE813F0F600F600F6001C
:104178002F012F012F016A01F600D700AD01962B00
:10418800E8D127F0FF072046FFF708FE47F092071F
:104198004F60CBE7962A13D10135D0E9012303EB11
:1041A800C20313F8153C2D2B40F0B7802A46FFF7C1
:1041B800E0FE002800F0B1806368023B6360B5E769
:1041C800A2F11E03012B63D9202A00F08D80052A55
:1041D800C0D10021FFF7E9FD0746002800F09D80C7
:1041E80010F0030A05D1436803F0FE03562B00F0D4
:1041F800948001212046FFF7D8FD00F00F02834686
:10420800022A40F08A80BAF1000F40F086803A799D
:104218002C2A40F08280BA6802F00F0002287CD174
:104228001209482A79D1FA68002A76D0900774D101
:104238001079302871D1D2F808904FEA1B134846FC
:104248000193FFF73AFE002840F012819B499C48F1
:104258000DF01EF8A169054653463A6809680DF045
:10426800EDF82846FCF70CFA1E2E0AD1FFF749FF95
:1042780018BB3846FFF742FF00B9D3460BF1FF3AA7
:104288000BE0FFF73BFFC0B93846FFF73AFFF3E70B
:1042980005F1FF3A8DB1AB46A94609F1FF39204631
:1042A8004946FFF782FD236962690746A3EB0B03C2
:1042B80042F82300B9F1000FD6D1002151450ED1A3
:1042C8006D1A012D3FF432AF362E7BD12A46414676
:1042D8002046FFF74EFE00287FF428AF1DE0204659
:1042E8000131FFF75BFDE9E70021FFF75EFD0746B7
:1042F800FFF704FF68B93846FFF703FF68B1EA2102
:104308002046FFF74BFD204607B0BDE8F04FFFF70A
:1043180093BD4FF48571F3E72B26A91C204689002D
:10432800FFF74AFD074646EA052300F10801C0F8F1
:1043380000804360002D40F01981962E03D1394644
:104348002046FFF779FD3946DDE7922E00F004811B
:10435800062EBBD0B8E7691E2046FFF726FD03A945
:10436800FFF7AAFE70B3022FA5F1020996BFA6F1C6
:104378000D072227FFB2B9F1000F09DA002D40F02E
:10438800E080039AD30740F1E18042F00101BAE7E7
:1043980049462046FFF709FD04A9FFF78DFE88B1BD
:1043A800222FDDF810A008D052460399384609F1AB
:1043B800FF3909F00DFE0390DDE750460EF02DF9A8
:1043C8000028F1DA332ECEE0691E2046FFF7EDFC17
:1043D80003A9FFF771FE0028F4D0A5F10209B9F18D
:1043E800000FCBDD09F1FF312046FFF7DEFC04A901
:1043F800FFF762FE0028E5D049462046FFF7D5FCC6
:10440800C0F307104228DDD04428DBD02438DDF87B
:1044180010A0C7B250460EF000F91A2F0AD800288B
:10442800D0DB524603993846A9F1020909F0D0FDBC
:104438000390D4E71E2FF4D90028F2D1C2E7002157
:104448002046FFF7B2FC03A9FFF736FE0028B9D0D3
:1044580001212046FFF7A9FCC0F307100399332870
:1044680016BF3F380220C0B209F02AF8039085E74A
:104478004846FFF747FD2BF00F0307460A4604F1AD
:10448800280043F006010AF069FB47600198FDF730
:104498004EF8037820465F2B09D14FF00008FFF74C
:1044A8007DFC204608264546FFF778FC52E6FFF7D4
:1044B80075FC49462046FFF7BFFC2EE79BAF0B086B
:1044C800D8810C0801212046FFF76FFC00F00F038C
:1044D8000746022B7FF476AF00212046FFF765FCE4
:1044E80000283FF46FAF10F003027FF46BAF03793D
:1044F800322B7FF467AF27F00F01D0F808901F48E0
:1045080041F006010AF02AFB00283FF45BAF04AA39
:104518004FEA1911406808F0F7FE049B002B3FF49E
:1045280051AFD90707D49A077FF44CAF1968144ADA
:1045380091427FF447AF059A002A7FF443AF039373
:104548001CE72046013DFFF729FC17E729462046CE
:10455800FFF766FC0146D6E6D4E9012303EBC20364
:1045680013F8053C2D2B7FF4D8AEAFE6013D20466D
:10457800FFF714FC41F82500DCE600BF40720C0888
:104588004C870C080346006830B550B184070AD13F
:104598004468E5B28D4206D100F10803200A136091
:1045A80030BD0346FBE70120F9E700002DE9F04F95
:1045B800AA4B97B000240D46029005A80192CDE9B8
:1045C8000731A749CDE90544FCF720F840234FF40B
:1045D8000070CDE90934FCF77BF820230B9080208C
:1045E800CDE90C34FCF774F82146CDE90E0513A883
:1045F800CDE911440AF07CFA019B002B48D0022B2C
:104608000CBF3F2222460023696C09A8954FFFF78B
:104618002AFC00230A9C002C00F06481013C0B99C1
:10462800914801EBC40251F834100A94D678C1F3CA
:10463800170A8E49632E526811F806B08C490BF0A0
:104648000F09895D88BF41F4807100EB41080BF0C8
:10465800300110291ED020294BD0002B00F01B81DF
:10466800B9F1020F40F00A81012A40D000211BF065
:10467800010F02F1FF3306D0B8F802003840B0F558
:10468800805F08BF5308012B40F0E580E1B1E2E00C
:104698003D22B8E702B1BBB108EB420825E0C346AA
:1046A80038F8023B03EA0701B1F5805F0ED195F8AF
:1046B8004C10C3F30B03994216D109A83146FFF7F2
:1046C80099FC2846FEF78EFF0023A3E7531C4B45B1
:1046D80004D23246514609A8FFF7C5FBBBF80010C3
:1046E80009A8FFF7E1FBEFE701329145D7D801238D
:1046F80090E773B102F10043013B38F813303B40B7
:10470800B3F5405F21D1002109A80392FFF794FB7C
:10471800039A08EB420491452BD8019B83B1052EDF
:104728000ED1002109A8FFF740FB48B9012109A8CB
:10473800FFF73BFB830744D000F00F00022845D168
:10474800002408EB4903A1465AE0012ACFD995F87D
:104758004C30062B40F0F480464947480CF098FD51
:10476800044600236A6C29680CF068FE2046FBF7B3
:1047780087FF039434F8021B01EA0700B0F5805F55
:1047880016D1C9B295F84C0088420ED1082805D137
:10479800314609A80392FFF72DFC039A2846039295
:1047A800FEF720FF039A0132B5E7002A9FD0CEE733
:1047B800531C5146324609A8FFF755FB039B19883D
:1047C8008EE70028BCD003793A2BB9D109A8FFF7A6
:1047D800E5FA09A8FFF7E2FA00230822514609A8DA
:1047E800FFF792FC70E733F8022D02EA0701B1F5F2
:1047F800805F10D1D2B2082A02D1013409F101092F
:104808004345F0D1B9F1010F1CD11BF0400F19D06D
:104818000026314610E0214609A80393FFF7C5FAA0
:10482800039B08B109F101090134E9E7FFF7B6FA7A
:104838000136002818BF0146A64209A8F6D1FFF79D
:10484800FBFA41E71BF0800F04D00134002109A8CE
:10485800FFF7F2FA23463246C0E700BF773D040867
:1048680013D2040800F0FFFF24730C08AC760C0880
:1048780074720C08A7AF0B08B4810C08012A3FF426
:1048880036AF12F001013FF4F2AEB9F1030F7FF435
:104898005EAF0121EBE609EA020303F0010338F8F1
:1048A800134004EA0701B1F5805F13D1C4F30B0488
:1048B80095F84C10A14202F1010409D11BB9314607
:1048C80009A8FFF797FB2846FEF78CFE2246E2E789
:1048D8002246C5E6531C5146324609A8FFF7C3FADB
:1048E8002146FDE613A80AF017F9129850B141685D
:1048F80022460831FBF712FF129B5A681A60119A78
:104908005A60119395F84C30002B7FF420AF0D9B23
:10491800002B3FF41CAF0E9B0B981B681093FBF702
:10492800FFFE0E98FBF7FCFE0120FBF777FE029BCB
:10493800DDE9100183E80300184617B0BDE8F08FE1
:10494800022B01D1034908E7042B03480CBF034994
:10495800034903E7B0AF0B08D8810C08D7AF0B08A1
:10496800EAAF0B0838B50446406808B9606038BD3E
:104978004568FBF7D5FE2846F7E70000F8B5054679
:1049880030200E461746FBF7BCFE072D044605707F
:10499800C66001D0012D0FD1B368C3F30F13A382F2
:1049A80008F046F80423206120202783E384FBF7DE
:1049B8008FFEE0622046F8BD014B5B5DEFE700BF6C
:1049C8005C770C0810B50446C06AFBF7A9FE2046C0
:1049D800BDE81040FBF7A4BE30B500220446058DA3
:1049E800954201D8002030BDE36A03EBC20043685A
:1049F8008B42F8D00132F3E770B504460D461646EF
:104A0800FFF7EAFFC0B9E38C228D9A4208D3063338
:104A1800E06AD900FBF777FEE38CE0620633E384B3
:104A2800238DE26A591C02EBC300218502F833602A
:104A3800002345604370438070BD034618465B6899
:104A4800002BFBD1FFF7C8BFF8B544680E462CB958
:104A5800F8BD042BFCD105230370F9E72546284649
:104A68006D68002DF4D077683946FFF7B5FF002848
:104A7800F5D00378043B022BEAD8062535700022CE
:104A880039462046FFF7B8FF0378002BE1D10570BF
:104A98006468F4E7036A1B8B012B1EBFC3685B18AD
:104AA800C3607047836A10B504469B6F406A984795
:104AB800238B226A0133918C9BB29942238338BF9E
:104AC800938410BD038B013B10B503830446836AAE
:104AD800406AD3F88430984720460121BDE8104049
:104AE800FFF7D8BF2DE9F04F85B004460D4698462C
:104AF80003921BB1CB8A43F00803CB82039BEB8361
:104B0800236ADA8A42F03002DA821B78002B46D117
:104B1800A36A2946039AD3F8B4604346606AB44648
:104B280005B0BDE8F04F6047DB6A03EBC60B13F82E
:104B38003630053B012B1DD84FF0000917E0EB6A12
:104B480003EBC90213F83930062B0ED1DBF8041039
:104B58005368994209D1A36A0AF1010ABBF80220F5
:104B68001B69606A1F460023B84709F101092B8DAC
:104B78004B45E4DC0136236A1A8DB242D4DCBAF123
:104B8800000FC5D0A36A5246CDF800802946D3F855
:104B9800B860606A039BB04705B0BDE8F08F002697
:104BA800B246E8E7836A002110B50446D3F8883096
:104BB800406A9847A36A606A0F211B6B9847A36AEB
:104BC800606A0121D3F8CC30984720460321BDE81C
:104BD8001040FFF75FBF38B5836A04460022406A79
:104BE8005B6C9847A36A606AD3F8C05000231A46E2
:104BF8001946A8472046BDE83840FFF7D3BF836A67
:104C0800002289681B6D0909406A1847836A896808
:104C1800DB6B406A184710B50446084611461A4629
:104C2800FFF7ACFE236A436000238360E3690BB996
:104C3800E06110BD1A469B68002BFBD19060F8E735
:104C48002DE9F04F87B005460C4600AF11B9012198
:104C5800116013E011F0030619D10B79682B19D1F3
:104C6800CB681B0913608C68002CF0D0012604F077
:104C78000F03022B0DD12109002EE9D0AB6A0022C7
:104C8800686ADB6A98471C37BD46BDE8F08F002686
:104C9800EDE716B9A3681B091360A04658F8043F4E
:104CA8004FEA132AC14608EB8A030AF1FF3BBB60AF
:104CB80059F8040F0009FCF72FFCBB688344994599
:104CC800F6D10BF1070323F00703ADEB030D002327
:104CD800E946C7F80CD058F8040F07F114013B60F7
:104CE8000009FCF730FC7A69014648467A6059F0B9
:104CF80035FF3B687A6801334A449A4505D09146A6
:104D08004FF02E0209F8012BE5E75946F868FCF741
:104D1800E7FBAB6A01460022DB6A686A9847002E07
:104D2800B1D00834BB689C42ADD054F8041F0022AF
:104D3800AB6A0909686A1B6D9847F3E731B101F05E
:104D480003038268134304BF0B68836070472DE92F
:104D5800F04107461E4659B111F0030510D14B68C2
:104D6800D8B290420CD14FEA13280C1D454501DBFF
:104D7800BDE8F08154F8041F38460135B047F5E71F
:104D880038463346BDE8F04118470000F8B50E46EE
:104D980011461A4600230446857807698370036123
:104DA8000E4BFFF7D4FF6368BBB9618A51B1228A01
:104DB80042B9A36A606AD3F8A0309847A36A606AC8
:104DC8001B6C9847238A3146628A2046FFF78AFE81
:104DD800003D276118BF0125A570F8BD3D560408A0
:104DE80070B5437805460C46012B06D1036A0A467E
:104DF80002211B8BFFF70FFF2061A268284621695B
:104E08004C23BDE87040FFF7C1BF70B51346427828
:104E180005460C46012A04D10A460721FFF7FBFE86
:104E2800A061A66928464623E2683146FFF7AEFF2F
:104E3800B08A70BD024B9D228968FFF788BF00BF0A
:104E4800495B0408024B6B228968FFF780BF00BFEB
:104E5800D576040838B543680D46044611464BB963
:104E680005480CF015FA294660602046BDE8384030
:104E7800FFF764BF38BD00BFD8810C08014AFFF7AF
:104E8800E9BF00BFEEAF0B080B79092B4FF6FF7394
:104E980070B508BF858A044618BFC58A9D4202D1ED
:104EA800064AFFF7D7FF218B628BA36A8A1A606ACA
:104EB80029465B6FBDE87040184700BFFBAF0B0881
:104EC80038B5054679B101F00F03022B0DD10C0955
:104ED800204609F07FFC002806DA224605490648E4
:104EE8000CF06CFA6860002038BD044AFFF7B2FF86
:104EF800F9E700BF14B00B086C810C0819B00B0857
:104F080070B5144605460E46127883B132B1032AAD
:104F180004D0104ABDE87040FFF79CBF03266168C3
:104F28002670286AFFF789FD00B1067070BD62B966
:104F3800012321462370006AFFF786FD2378012BA1
:104F4800F4D1054A31462846E4E7062AEED0034A5A
:104F5800E0E700BF29B00B0836B00B0843B00B08D8
:104F68002DE9F341437804460D46012B1AD10B79FC
:104F7800102B0CBF4FF001084FF0000808D0036A4F
:104F88001B782BB9114A02B0BDE8F041FFF762BFA8
:104F980001AA6D2105F108000026FFF7F3FA07467C
:104FA800B74202D102B0BDE8F081019B0022206A1D
:104FB80053F8261001360909FFF71EFD434602463D
:104FC80029462046FFF79CFFEAE700BF4AB00B08D6
:104FD80042780B46012A02D1006A02F0E5BD816AD7
:104FE800026A2031406A02F0EEBD42780B46012A7F
:104FF80002D1006AFFF700BD816A026A1031406A77
:1050080002F0E1BD70B505460C4600292DD0CA074F
:1050180006D5836A49105B6B686ABDE8704018471B
:105028008B0716D004F00F040909022C0AD0062CAD
:105038000CD0052919D0836AC9B2406A1B6BBDE838
:1050480070401847BDE87040FFF7CFBF836A9B6B7D
:10505800E2E7836A0968DB68406A98472279034B6C
:105068002146284653F82230D7E770BD64770C08EC
:105078002DE9F74F05460C4616461F462046FFF712
:105088003DF840B16EB9AB6A39469B6E686A03B0A9
:10509800BDE8F04F18472046FFF733F820B1002E3F
:1050A800F1D103B0BDE8F08F002C48D0A30746D15A
:1050B80063684FEA132BDBB21E2B18D1DEB1043420
:1050C80004EB8B0B5C45ECD03B46324654F8041F8E
:1050D8002846FFF7CDFFF5E743465AF8041F284650
:1050E800019209F10109FFF7C3FF019A11E01F2B93
:1050F8001FD1002EE3D0D5F80C8004F1040A4FF03C
:10510800000986F0010208F10103EB600BF1FF339F
:105118000093009B4B45DFDC0BF101013B46324617
:10512800284654F82110FFF7A3FFAB6A41469B6A53
:10513800ACE7202B03D1A46886F001069EE7214640
:105148002846FFF75FFFAB6A3A463146DB6E686A6E
:1051580003B0BDE8F04F1847026A38B51278044624
:105168000B46072A06D0022A04D0154ABDE8384063
:10517800FFF770BE9D6885B9A36A0F21606A1B6B33
:105188009847A36A0021606AD3F8CC309847204634
:105198000121BDE83840FFF77DBCAB070BD12B7967
:1051A800AF2B08D12046A968FFF72CFF2046BDE8A1
:1051B8003840FFF7F7BC29462046FFF723FFE0E712
:1051C80060B00B0870B5437804461546CE68012BCD
:1051D80006D1036A0A4629461B8BFFF71CFD70613E
:1051E8000023716920461A46FFF77CFCF1682046C7
:1051F800FFF708FF062D05D1A36A0021606AD3F8DE
:1052080088309847A36A0121606AD3F8BC5000230C
:10521800AC461A46BDE87040604738B505460C46AE
:10522800C968FFF7EFFEA1682846BDE83840FFF7D8
:10523800E9BE0B79342B70B504460D4610D1896848
:10524800FFF7E0FEED68AD6885B9A36A0F21606AD3
:105258001B6B9847A36A04220221D3F8A0301AE0F6
:10526800836A0F21406A1B6B9847ECE7AB071FD195
:105278002B799A2B13D1A36A0F21606A1B6B98476D
:10528800A9680029E6D02046FFF7BCFEA36A0422DD
:105298000321D3F8A030606ABDE8704018479B2B03
:1052A80006D1A9682046FFF7ADFEEB689968E8E7E4
:1052B80029462046FFF7A6FECCE710B504468968C4
:1052C800FFF7A0FE0021A36A606ADB6CBDE810400E
:1052D800184700002DE9F7438D68044616465DB966
:1052E800002A75D0836A02222946D3F8A030606A62
:1052F80003B0BDE8F043184715F0030740F08A8073
:105308002B79372B13D132B1836A02220121406AEB
:10531800D3F8A030984720462946FFF773FEA36AC2
:10532800606AD3F8A43003B0BDE8F04318479F2B58
:1053380070D1EB681A79A12A5AD1A22101AA03F1E6
:105348000800FFF71FF9A968804621B38B0722D10F
:105358000B79372B1FD136B1A36A411C0222606A30
:10536800D3F8A0309847A9682046FFF74BFEA36AF8
:105378004FF00109606AD3F8A4309847474510D127
:10538800B9F1000F24D1A36A0322791C606AD3F80B
:10539800A03098471CE020464FF00009FFF732FE86
:1053A800ECE7019B53F82710A9B18E0713D10E79AA
:1053B800A6F13700464246412046FFF723FEB9F1E1
:1053C800000F11D04EB9184A29462046FFF742FD72
:1053D80003B0BDE8F0830026EEE7A36A606AD3F85D
:1053E800A43098470137C9E7002EFBD00F4AEBE7F6
:1053F800AB685BB19A0709D11B79372B06D1042218
:10540800294603B0BDE8F043FFF7DCBE0522294674
:105418002046F6E729462046FFF7F4FDA36A032253
:105428000121D3F8A03062E76BB00B087CB00B0801
:105438000122FFF74FBF70B50D46C9680446FFF754
:10544800E1FDA968A36AC1F30711606AD3F898302F
:10545800332916BF3F390221C9B2BDE87040184749
:10546800F8B54F680C46002689683F0A0C34054693
:10547800FFF7C8FD02360834B74200DCF8BD54F81F
:10548800041C2846FFF7BEFD54F8081CAB6A09093E
:10549800686AD3F89C302439C9B29847EAE72DE9FD
:1054A800F0414E680C4601270546A6F10D08360A5C
:1054B80054F8081F5FFA88F8FFF7A4FDB74201DB2C
:1054C800BDE8F08154F8041F2846FFF79BFDAB6A3E
:1054D8004146686AD3F89C3001379847EEE72DE9D2
:1054E800F0414E680D4689680446360A0127FFF7E1
:1054F80089FD032E89BFD4F80C804FF0000808F10D
:105508000103E3607B1C9E4222DC032E55D9E5682B
:10551800606A6B1C2946E360A36A9B6E9847A36A7E
:105528004146606A9B6A9847A36A0121606A9B6842
:105538009847A36A606A1B6E9847A36A606ADB6D26
:105548009847A36A2946606A9B6ABDE8F0411847F4
:10555800023729692046FFF755FDB74207DAA36AE3
:10556800606A5B6D9847A36A606A5B6E9847EB68F0
:10557800A26A03F00F01606AD2F89C200A2911D1AF
:10558800C3F30713252B16BF343B0621D9B2904726
:10559800B74205DAA36A42460021606A1B6F984742
:1055A8000835AFE71979852901D13221EFE79B68E2
:1055B8000BB90721EBE73321E9E7BDE8F08110B526
:1055C80004468968FFF71EFD0321A36A606AD3F8C1
:1055D8009830BDE8104018472DE9F0470D46D0F83F
:1055E8000C800446002755F8046F5FFA86F9360ADE
:1055F800A9F11E03D3F1000949EB030908F10103DE
:10560800C360B74206DBA36A4146606A9B6ABDE88D
:10561800F0471847013755F8041F2046FFF7F2FCFA
:10562800B742F0DAA36A42464946606A1B6F984758
:10563800E7E7000001F00F03022B70B5044612D013
:105648000B79492B09D0483B082B18D8DFE803F021
:10565800081707171717170507000123A37070BD50
:105668008E680D6975B9A378002BF8D1638A002B71
:10567800F5D020461D4ABDE87040FFF7EBBBD1E9E5
:105688000265EFE7A3783BB3238A01339BB2012B72
:1056980023820ED1618AD4E90903D1B1D3F8A030AD
:1056A80000229847A36A02220021606AD3F8A0303A
:1056B800984729462046FFF7A5FCA36A606A310986
:1056C8009B6B9847A36A606AD3F8A430BDE8704022
:1056D80018471B6C9847E5E7638A2946204601333B
:1056E8006382BDE87040FFF78DBC00BF89B00B082E
:1056F8002DE9F041C5680446D1F80C800E46AB1C74
:105708000022D8F808106F1CC3602B46FFF7B0FCC6
:10571800B1682046FFF776FCA36A3946606A9B6E3B
:105728009847A36A2946606A9B6A9847A36A606A91
:105738004FF0FF319B689847D8F80C102046FFF7C8
:1057480061FCA36A3946606A9B6ABDE8F041184764
:105758002DE9F047C6680446D0F814A00D46B31CDE
:1057680006F10108B0F81A90C360038B8682A0F88E
:10577800168043838868FEF7C1FCF8B9E768A86813
:105788007B1CE360FEF7BDFC20B9A36A4146606A52
:105798009B6E9847A36A3946606A9B6A9847E9688E
:1057A8002046FFF72FFCA36A4146606A9B6A984728
:1057B8003B460122A9682046FFF75AFC2969204682
:1057C800C4F814A0A4F81A90FFF71CFCA36A314689
:1057D800606A9B6ABDE8F04718472DE9F347C66839
:1057E80004460D46731CC3608868FEF787FC0246B2
:1057F800E8B9E7682046A9687B1CE3603B46FFF7E9
:1058080037FC2046E968FFF7FDFBA868FEF779FC3E
:10581800D8B92B690BB96B6923B1A36A3146606AA1
:105828009B6E9847A36A3946606A9B6A984701AAA3
:10583800712105F110000027FEF7A4FE81464F45AF
:105848000BD169692046FFF7DDFBA36A3146606A20
:105858009B6A984702B0BDE8F087019B53F8278000
:10586800D8F80800FEF74AFC024600BBD4F80CA0A2
:105878002046D8F808100AF10103E3605346FFF701
:10588800F7FBD8F80C102046FFF7BCFBD8F8080047
:10589800FEF737FCD4E909230028D6D19B6E3146A0
:1058A80010469847A36A5146606A9B6A9847013731
:1058B800C5E70000184B2DE9F041D3F81C720446E7
:1058C8000D463FBBC66801228968731CC360334616
:1058D800FFF7CEFBA36A1F2101225B69606A984724
:1058E800E96851B12046FFF78DFBA36A3A460121CA
:1058F800D3F8BC503B46606AA847A36A0121606A96
:10590800D3F8C8309847A36A3146606A9B6ABDE8F5
:10591800F0411847BDE8F0812002002470B58D6879
:1059280004463DB9836A2946D3F8C830606ABDE8A1
:1059380070401847AB070ED12B795E2B0BD1A968A5
:10594800FFF760FBE9682046FFF75CFBA36A0221CA
:10595800D3F8C830EAE729462046FFF753FBA36A85
:105968000121D3F8C830E1E710B504468968FFF78C
:1059780049FBA36A606ADB6DBDE810401847000068
:10598800026A2DE9F04112780446072A04D01B4A1E
:10599800BDE8F041FFF75EBA8D685DB9836A0F21F3
:1059A800406A1B6B9847A36A606AD3F8C430BDE8A5
:1059B800F041184715F003021DD12B791B2B1AD182
:1059C800C668EF68731CB968C3603346FFF750FBBD
:1059D800A9682046FFF716FBA36A606AD3F8C430AB
:1059E8009847A36A3146606A9B6A9847F9682046D7
:1059F800FFF708FBD7E72946F9E700BFA7B00B0870
:105A08002DE9F0410C46054654F8046F360A04EBBC
:105A18008607BC4208D1AB6A3146686A0022D3F8CF
:105A2800A030BDE8F041184754F8041F2846FFF796
:105A3800E9FAEEE78968034610B441B9826A406A18
:105A4800D2F8A0400A4623465DF8044B18474A6836
:105A5800120A022A0BD1CA684AB1940707D11279EF
:105A6800AC2A04D106225DF8044BFFF7ABBB1846FD
:105A78005DF8044BFFF7C4BF2DE9F0410E4605461B
:105A88000F46002456F8043F4FEA1328444501DB2B
:105A9800BDE8F08156F8041F2846FFF7B3FA6B6893
:105AA8003BB10234284657F82410BDE8F041FFF70F
:105AB80045B90134EAE710B50446FFF7DDFF2221B6
:105AC800A36A606AD3F89C30BDE81040184770B5E7
